:020000000828CE
:02000800652869
:1000100027008C018D018E0126008C018D018E013F
:1000200025008C018D018E0124008C018D018E0133
:10003000230001308C008D018E01220097012100E8
:100040000F308C008D018E01803095006830990052
:100050009A1A282801309D0040309E000F309F00E2
:100060004030910020008C018D018E011113C030B1
:100070008B00A501A401A6013D2820008C185E2854
:100080000C195E28103024021030031CA407103015
:10009000240710300318A402103024022502031C88
:1000A000A6141030240725020318261426180D1054
:1000B000A6180D14A60121009D143D288C180D10C2
:1000C0000C190D142508A4005A28A1000808A00046
:1000D0002000111B7028200020088800210809003A
:1000E000111321009D1872281C082000A5006B2800
:020000040001F9
:04000E00E401FF18F2
:00000001FF
