:020000000828CE
:0200080070285E
:1000100027008C018D018E0126008C018D018E013F
:1000200025008C018D018E0124008C018D018E0133
:10003000230001308C008D018E01220097012100E8
:100040000F308C008D018E01803095006830990052
:100050009A1A282801309D0040309E000F309F00E2
:100060004030910020008C018D018E011113C030B1
:100070008B00A501A401A6013D2820008C1867284B
:100080000C196728103024021030031CA40710300C
:10009000240710300318A402103024022502031C88
:1000A000A6141030240725020318261426186328E6
:1000B000A6185F288D01A60121009D143D280D1171
:1000C0000D148D145B288D100D100D155B288D14EB
:1000D0000D158C180D100C190D142508A4005B28A3
:1000E000A1000808A0002000111B7B282000200888
:1000F000880021080900111321009D187D281C0883
:060100002000A500762896
:020000040001F9
:04000E00E401FF18F2
:00000001FF
