:020000000828CE
:020008005A2874
:1000100027008C018D018E0126008C018D018E013F
:1000200025008C018D018E0124008C018D018E0133
:10003000230001308C008D018E01220097012100E8
:100040000F308C008D018E01803095006830990052
:100050009A1A282801309D0040309E000F309F00E2
:100060004030910020008C018D018E011113C030B1
:100070008B00A501A4013C2820008C1855280C19E0
:100080005528203024022502031CA6142030240702
:1000900025020318261426180D10A6180D14A60103
:1000A0002508A40021009D143C288C180D100C1963
:1000B0000D144F28A1000808A0002000111B65287E
:1000C00020002008880021080900111321009D1834
:0A00D00067281C082000A500602826
:020000040001F9
:04000E00E401FF18F2
:00000001FF
