:020000000828CE
:0200080040288E
:1000100027008C018D018E0126008C018D018E013F
:1000200025008C018D018E0124008C018D018E0133
:10003000230001308C008D018E01220097012100E8
:100040000F308C008D018E01803095006830990052
:100050009A1A282801309D0040309E000F309F00E2
:100060004030910020008C018D018E011113C030B1
:100070008B003A282000210022088D009D143A2888
:10008000A1000808A0002000111B4B282000200818
:10009000880021080900111321009D184D281C0813
:0E00A0002000A20021001B082000A30046281B
:020000040001F9
:04000E00E401FF18F2
:00000001FF
